:100000000C945D000C942D020C942D020C942D0286
:100010000C942D020C942D020C942D020C942D02A4
:100020000C942D020C942D020C942D020C942D0294
:100030000C942D020C942D020C942D020C942D0284
:100040000C942D020C942D020C942D020C942D0274
:100050000C942D020C942D020C942D020C942D0264
:100060000C942D020C942D020C942D020C942D0254
:100070000C942D020C942D020C942D020C942D0244
:100080000C942D020C942D020C942D020C942D0234
:100090000C942D020C942D020C942D020C942D0224
:1000A0000C942D020C942D020C942D020C942D0214
:1000B0000C942D0201000101800011241FBECFEF1E
:1000C000D8E0DEBFCDBFE4EBF0E040E017C0B59173
:1000D000A59135912591059107FD0CC095918591CC
:1000E000EF01F92FE82F05900D92A217B307D9F76A
:1000F000FE0104C01D92A217B307E1F7E93BF40724
:0E01000031F70E94FF010C940A02F894FFCF21
:10010E00CF93DF932FEF83EC99E021508040904006
:10011E00E1F700C00000C0E0D0E029C080E380938A
:10012E0000016091000182E00E94ED0180910001CA
:10013E008860809300016091000182E00E94ED01D1
:10014E008FE99FE00197F1F700C000008091000158
:10015E00877F809300016091000182E00E94ED0193
:10016E0087EE93E00197F1F700C000002196C330AF
:10017E00D105A4F280E2809300016091000182E03B
:10018E000E94ED01809100018860809300016091D2
:10019E00000182E00E94ED018FE99FE00197F1F7E7
:1001AE0000C0000080910001877F80930001609164
:1001BE00000182E00E94ED0187EE93E00197F1F7D6
:1001CE0000C0000088E20E94AD018CE00E94AD01EB
:1001DE000E94150286E00E94AD01DF91CF91089535
:1001EE00CF93DF93D82FC0910001CF70807F8C0FFB
:1001FE00809300016091000182E00E94ED018091E8
:10020E0000018860809300016091000182E00E94ED
:10021E00ED018FE99FE00197F1F700C0000080919A
:10022E000001877F809300016091000182E00E94AF
:10023E00ED0190E1D99FC00D1124C0930001609192
:10024E00000182E00E94ED018091000188608093A0
:10025E0000016091000182E00E94ED018FE99FE0B4
:10026E000197F1F700C0000080910001877F809315
:10027E0000016091000182E00E94ED01DF91CF91BB
:02028E000895D1
:100290000E9415028EE60E94C40185E60E94C401F8
:1002A0008BE60E94C40180EC0E94AD0184E70E94AD
:1002B000C40181E60E94C40182E70E94C4012FEFBD
:1002C00087EA91E6215080409040E1F700C00000AD
:1002D0000E9415028EE60E94C40189E60E94C401B4
:1002E00080EC0E94AD018BE60E94C4018FE60E9463
:1002F000C40183E70E94C4012FEF87EA91E62150F1
:0C03000080409040E1F700C0000008952C
:10030C0094EA9093BC009091BC009923E4F79091EF
:10031C00B900987F983011F0903191F78093BB0021
:10032C0094E89093BC009091BC009923E4F79091D1
:10033C00B900987F903211F0983541F494E990937C
:0E034C00BC009091BC0094FDFCCFDACF089568
:10035A00CF93C82F809100018B7F80930001609119
:10036A00000182E00E94ED018C2F0E94F70087EEC7
:0E037A0093E00197F1F700C00000CF910895C5
:10038800CF93C82F80910001846080930001609111
:10039800000182E00E94ED018C2F0E94F70087EE99
:0E03A80093E00197F1F700C00000CF91089597
:1003B6008093BB0084E88093BC008091BC008823B6
:1003C600E4F78091B900887F883211F081E00895C2
:0403D60080E0089526
:1003DA00CF93DF93D82FC62F80E40E9486018D2FFA
:1003EA000E94DB018C2F0E94DB010E941F02DF9119
:0403FA00CF91089502
:1003FE000E94270260E086E00E94ED010E948700C5
:06040E000E944801FDCF31
:10041400EC010E9432020E943102CE010E9433029A
:06042400CE010E942F0230
:10042A0081E00E94AD018FE19EE40197F1F700C0DF
:04043A000000089521
:10043E0084E98093BC008091BC0084FDFCCF0895BC
:0C044E001092B90088E48093B800089573
:04045A000C940000FE
:04045E000E94850073
:020462000895FB
:020464000895F9
:020466000895F7
:00000001FF
