:100000000C945E000C947C010C947C010C947C019B
:100010000C947C010C947C010C947C010C947C016C
:100020000C947C010C947C010C947C010C947C015C
:100030000C947C010C947C010C947C010C947C014C
:100040000C947C010C947C010C947C010C947C013C
:100050000C947C010C947C010C947C010C947C012C
:100060000C947C010C947C010C947C010C947C011C
:100070000C947C010C947C010C947C010C947C010C
:100080000C947C010C947C010C947C010C947C01FC
:100090000C947C010C947C010C947C010C947C01EC
:1000A0000C947C010C947C010C947C010C947C01DC
:1000B0000C947C01010001220003060011241FBEE4
:1000C000CFEFD8E0DEBFCDBFE4EBF0E040E017C0FB
:1000D000B591A59135912591059107FD0CC095919C
:1000E0008591EF01F92FE82F05900D92A217B30724
:1000F000D9F7FE0104C01D92A217B307E1F7EB3B4D
:10010000F40731F70E9488000C947101F894FFCF36
:10011000CF93DF93CDB7DEB7A2970FB6F894DEBFCB
:100120000FBECDBF82E084B980E385B981E88093BA
:10013000800089E08093810088E090E09A83898341
:1001400080911001109289008093880080E090E0F7
:100150000CC0FC01EE0FFF1F21E030E02C0F3D1F13
:10016000E20FF31F138212820196803191058CF306
:100170008FEF8AB981E480937C0087E880937A00CE
:10018000E12CF12C00E010E01C9906C0CE01019694
:100190000E942901809388001D9906C0CE01019616
:1001A0000E944D0180938800EAE7F0E0808180643E
:1001B000808380917A0086FDFCCF809178009091B9
:1001C0007900F801EE0FFF1F41E050E04C0F5D1F7A
:1001D000E40FF51F22813381AC01421B530BE40E67
:1001E000F51E938382830F5F1F4F0031110514F0BA
:1001F00000E010E0C70195958795959587959595B1
:10020000879595958795893C91051CF481E08BB97C
:1002100016C0813951E095071CF482E08BB90FC0FC
:10022000893522E092071CF484E08BB908C0813242
:1002300093401CF488E08BB902C080E18BB94FEF8A
:1002400051EE84E0415050408040E1F700C0000092
:020250009BCF42
:10025200FC01808191818031910571F4880F991F91
:10026200FC01E050FF4F8081918108958FE19EE46F
:100272000197F1F700C000001C9BF8CF208131816B
:100282002F5F3F4F31832083220F331FF901E0504C
:08029200FF4F80819181089566
:10029A00FC01208131812115310571F4220F331FB0
:1002AA00F901E050FF4F8081918108958FE19EE42A
:1002BA000197F1F700C000001D9BF8CF2081318122
:1002CA002150310931832083220F331FF901E05075
:0802DA00FF4F8081918108951E
:1002E200EC010E9481010E948001CE010E948201E4
:0602F200CE010E947E0116
:0402F8000C94000062
:0402FC000E948600D6
:0203000008955E
:0203020008955C
:0203040008955A
:100306000500140024003300420052006100700012
:1003160080008F009E00AD00BD00CC00DB00EB002E
:02032600FA00DB
:00000001FF
