:020000020000FC
:0200000045C0F9
:1000540000C00F9382D0E0917800F09179002AD00B
:1000640046D000E3842F800F6CD08EE26AD0852FB7
:10007400800F67D0862F800F64D086E562D088EE2B
:1000840093E0A0D00F9118950FEF0DBF08E00EBFBD
:100094000FEF0AB93B98439803E400937C000FE800
:1000A40000937A0060D0789400917A000064009301
:1000B4007A00FACF0027222733274427552764EFF5
:1000C40071E0E69F9001E79F300D411D501FF69FA0
:1000D400300D411D501FF79F400D511D0AE05695EC
:1000E4004795379527950A950023C9F70895E9019F
:1000F400442755276627E297E29712F04395FBCFF2
:10010400E296E2962A9712F05395FCCF2A9621970D
:1001140012F06395FCCF219608958F9399B19F7047
:10012400807F890F8BB95B9A000000005B988F91E8
:100134008295807F890F8BB95B9A000000005B98E1
:1001440008955A9AEADF8AEF90E04BD008955A98BE
:10015400E4DF8AEF90E045D0089581E0F8DF85E0A0
:1001640090E030D0089588EC90E02CD080E38BB9F7
:100174005B9A000000005B988AEF90E032D080E345
:100184008BB95B9A000000005B988AEF90E029D05D
:1001940080E38BB95B9A000000005B988AEF90E0E3
:1001A40020D080E28BB95B9A000000005B988AEF54
:1001B40090E017D088E2CBDF8CE0C9DFCEDF86E0A9
:1001C400C6DF0895ADE9BFE01197F1F7019739F063
:1001D40000000000000000000000000099F700008B
:1001E400089501970E94F800E1F7089500000000C7
:0601F40000000000089568
:00000001FF
