:100000000C945D000C940F010C94ED000C940F0106
:100010000C940F010C940F010C940F010C940F0120
:100020000C940F010C940F010C940F010C940F0110
:100030000C940F010C940F010C940F010C940F0100
:100040000C940F010C940F010C940F010C940F01F0
:100050000C940F010C940F010C940F010C940F01E0
:100060000C940F010C940F010C940F010C940F01D0
:100070000C940F010C940F010C940F010C940F01C0
:100080000C940F010C940F010C940F010C940F01B0
:100090000C940F010C940F010C940F010C940F01A0
:1000A0000C940F010C940F010C940F010C940F0190
:1000B0000C940F0101000102800011241FBECFEF3C
:1000C000D8E0DEBFCDBFE4EBF0E040E017C0B59173
:1000D000A59135912591059107FD0CC095918591CC
:1000E000EF01F92FE82F05900D92A217B307D9F76A
:1000F000FE0104C01D92A217B307E1F7E93BF40724
:0E01000031F70E9487000C940401F894FFCFA1
:10010E0088E08093690082E08DBB8FEF84B91AB8C6
:10011E008BB188608BB97894809101018823D9F0D6
:10012E0088E085B980E090E00BC0E9EFF0E0319710
:10013E00F1F700C0000020910001211105C00196C9
:10014E00803AFFE09F078CF3809100018111E4CF8C
:10015E0010920101E1CF809100018823A9F1109244
:10016E0000018EE385B980E090E00BC0E9EFF0E08E
:10017E003197F1F700C0000020910001211105C058
:10018E000196883EF3E09F078CF380910001811168
:10019E00C3CF88E085B980E090E00BC0E9EFF0E0D6
:1001AE003197F1F700C0000020910001211105C028
:1001BE000196883BFBE09F078CF380910001811133
:0C01CE00ABCF10920101A8CF15B8A6CF4E
:1001DA001F920F920FB60F9211248F9380910101F3
:1001EA00811104C081E08093010103C081E0809302
:0E01FA0000018F910F900FBE0F901F9018956F
:10020800EC010E9414010E941301CE010E94150105
:06021800CE010E9411015D
:04021E000C9400003C
:040222000E948500B1
:02022600089539
:02022800089537
:02022A00089535
:00000001FF
