:100000000C945D000C940B040C940B040C940B04E6
:100010000C940B040C940B040C940B040C940B0424
:100020000C940B040C940B040C940B040C940B0414
:100030000C940B040C940B040C940B040C940B0404
:100040000C940B040C940B040C940B040C940B04F4
:100050000C940B040C9476030C940B040C940B047A
:100060000C940B040C940B040C940B040C940B04D4
:100070000C940B040C940B040C940B040C940B04C4
:100080000C940B040C940B040C940B040C940B04B4
:100090000C940B040C940B040C940B040C940B04A4
:1000A0000C940B040C940B040C940B040C940B0494
:1000B0000C940B0401000103800011241FBECFEF3C
:1000C000D8E0DEBFCDBFE4EBF0E040E017C0B59173
:1000D000A59135912591059107FD0CC095918591CC
:1000E000EF01F92FE82F05900D92A217B307D9F76A
:1000F000FE0104C01D92A217B307E1F7E93BF40724
:0E01000031F70E9487000C94C803F894FFCFDB
:10010E009FEF9AB987B1877F87B988B1877F88B902
:10011E0094B9ECE7F0E0808183648083EAE7F0E055
:10012E0080818F6880830E9465027894109202010C
:10013E00EAE7F0E080818064808380910201882369
:10014E00E1F36091000170910101072E000C880B04
:10015E00990B0E94AC0220E030E040EA50E40E948D
:10016E00040420E030E040E85AE30E9404042DEC41
:10017E003CEC4CEC5DE30E94DD032DE33AE04BE9F1
:10018E0052E40E9404046B017C0120E030E046E959
:10019E0052E40E94FF03882334F50E94D3030E9489
:1001AE00A0032AE534E643E652E4C701B6010E94F5
:1001BE00FF03882364F481E085B92FEF81EE94E08C
:1001CE00215080409040E1F700C00000AFCF83E0A7
:1001DE0085B92FEF81EE94E0215080409040E1F7F9
:1001EE0000C00000A3CF0E94D3030E94E70220E6C6
:1001FE0035EE42EF52E4C701B6010E94FF03882399
:10020E00B4F483E085B92FEF80E792E0215080406F
:10021E009040E1F700C0000015B82FEF80E792E0A4
:10022E00215080409040E1F700C000007FCF2AE4CB
:10023E003CE04AE353E4C701B6010E94FF03882362
:10024E00B4F487E085B92FEF80E792E0215080402B
:10025E009040E1F700C0000015B82FEF80E792E064
:10026E00215080409040E1F700C000005FCF23EEA8
:10027E0035EA4AE753E4C701B6010E94FF0388231B
:10028E00B4F48FE085B92FEF80E792E021508040E3
:10029E009040E1F700C0000015B82FEF80E792E024
:1002AE00215080409040E1F700C000003FCF2EEB80
:1002BE003FE94DE953E4C701B6010E94FF038823CD
:1002CE00B4F48FE185B92FEF80E792E021508040A2
:1002DE009040E1F700C0000015B82FEF80E792E0E4
:1002EE00215080409040E1F700C000001FCF8FE307
:1002FE0085B92FEF80E792E0215080409040E1F7E2
:10030E0000C0000015B82FEF80E792E0215080402A
:0A031E009040E1F700C0000009CF95
:100328000FC00E94E40338F00E94EB0320F09523ED
:1003380011F00C94F9030C94080411240C94F303A1
:100348000E94540370F3959FC1F3950F50E0551F19
:10035800629FF001729FBB27F00DB11D639FAA2712
:10036800F00DB11DAA1F649F6627B00DA11D661F61
:10037800829F2227B00DA11D621F739FB00DA11D82
:10038800621F839FA00D611D221F749F3327A00D3C
:10039800611D231F849F600D211D822F762F6A2FD8
:1003A80011249F5750409AF0F1F088234AF0EE0F3D
:1003B800FF1FBB1F661F771F881F91505040A9F76A
:1003C8009E3F510580F00C94F9030C94F3035F3FB2
:1003D800E4F3983ED4F3869577956795B795F795A6
:1003E800E7959F5FC1F7FE2B880F911D969587951E
:0403F80097F90895D4
:1003FC0011C00E94E40338F00E94EB0320F039F4A2
:10040C009F3F19F426F40C9408040EF4E095E7FBD6
:10041C000C94F903E92F0E94540358F3BA1762079E
:10042C0073078407950720F079F4A6F50C94F20372
:10043C000EF4E0950B2EBA2FA02D0B01B9019001F3
:10044C000C01CA01A0011124FF27591B99F0593F37
:10045C0050F4503E68F11A16F040A22F232F342F7F
:10046C004427585FF3CF469537952795A795F040CD
:10047C005395C9F77EF41F16BA0B620B730B840BE2
:10048C00BAF09150A1F0FF0FBB1F661F771F881F9A
:10049C00C2F70EC0BA0F621F731F841F48F48795F2
:1004AC0077956795B795F7959E3F08F0B0CF9395E4
:0E04BC00880F08F09927EE0F97958795089501
:1004CA002FEF83EC99E0215080409040E1F700C083
:1004DA00000020E030E016C080E38BB98BB1886061
:1004EA008BB98FE99FE00197F1F700C000008BB14B
:1004FA00877F8BB987EE93E00197F1F700C0000080
:10050A002F5F3F4F233031053CF380E28BB98BB12B
:10051A0088608BB98FE99FE00197F1F700C000006E
:10052A008BB1877F8BB987EE93E00197F1F700C013
:10053A00000088E20E94BC038CE00E94BC030E9477
:0A054A00D30386E00E94BC0308956D
:10055400E89409C097FB3EF4909580957095619559
:100564007F4F8F4F9F4F9923A9F0F92F96E9BB270F
:100574009395F695879577956795B795F111F8CF8B
:10058400FAF4BB0F11F460FF1BC06F5F7F4F8F4FF6
:100594009F4F16C0882311F096E911C0772321F0EC
:1005A4009EE8872F762F05C0662371F096E8862F84
:1005B40070E060E02AF09A95660F771F881FDAF7DB
:0A05C400880F9695879597F9089522
:1005CE0087E40E94B00381E40E94B00383E50E9499
:1005DE00B00380E20E94B00384E40E94B00385E47D
:1005EE000E94B00384E50E94B00385E40E94B0032C
:1005FE0083E40E94B00384E50E94B00385E40E9468
:0A060E00B00384E40E94B0030895D5
:1006180099B19F70282F207F290F2BB92BB1286003
:100628002BB9EFE9FFE03197F1F700C000002BB1DB
:10063800277F2BB9F0E18F9F900D11249BB98BB1C7
:1006480088608BB98FE99FE00197F1F700C000003F
:080658008BB1877F8BB9089577
:10066000990F0008550FAA0BE0E8FEEF16161706C3
:10067000E807F907C0F012161306E407F50798F02B
:10068000621B730B840B950B39F40A2661F0232B44
:10069000242B252B21F408950A2609F4A140A695C0
:0806A0008FEF811D811D0895FB
:1006A80057FD9058440F551F59F05F3F71F047951B
:1006B800880F97FB991F61F09F3F79F08795089500
:1006C800121613061406551FF2CF4695F1DF08C01F
:1006D800161617061806991FF1CF8695710561053C
:0406E80008940895D5
:1006EC001F920F920FB60F9211248F939F938091AC
:1006FC00780090917900909301018093000181E042
:10070C00809302019F918F910F900FBE0F901F90BD
:02071C0018952E
:10071E00092E0394000C11F4882352F0BB0F40F401
:10072E00BF2B11F460FF04C06F5F7F4F8F4F9F4F41
:02073E0008951C
:1007400083E40E94B0038CE40E94B00385E40E941D
:10075000B00381E40E94B00382E50E94B0030895D3
:100760009BB194609BB90E940C0387EE93E00197C4
:08077000F1F700C0000008953C
:100778009BB19B7F9BB90E940C0387EE93E0019786
:08078800F1F700C00000089524
:10079000EC010E9410040E940F04CE010E9411047B
:0607A000CE010E940D04D1
:1007A60081E00E94BC038FE19EE40197F1F700C04F
:0407B60000000895A2
:0E07BA005058BB27AA270E94FE010C948F0303
:0E07C80000240A94161617061806090608954E
:0E07D60000240A941216130614060506089550
:0E07E400E894BB2766277727CB0197F9089585
:0C07F20097F99F6780E870E060E00895D0
:0A07FE000E94300308F481E0089522
:080808000E9494010C948F037F
:060810009FEF80EC08954B
:040816000C9400003E
:04081A000E948500B3
:02081E0008953B
:02082000089539
:02082200089537
:00000001FF
