:020000020000FC
:0200000002C03C
:1000040020C08FEF8DBF88E08EBF82E080936900AF
:1000140081E08DBBAFEFA7B952985A9A7894AA277A
:100024000A2F000F08B980E89EE304D0A395A032FC
:10003400B1F3F6CF79EF7A950000E9F70197D1F79C
:1000440008952F938F939F9381E08CBB80E590E07C
:10005400F1DFE099F9CF4A99F7CF23B12E7105D09A
:1000640028B99F918F912F911895112721FF1395EE
:1000740022FF139523FF139524FF139522271123A1
:0C00840021F01A95220F2160FACF089598
:00000001FF
