:100000000C945D000C941F010C94F0000C941F01E3
:100010000C941F010C941F010C941F010C941F01E0
:100020000C941F010C941F010C941F010C941F01D0
:100030000C941F010C941F010C941F010C941F01C0
:100040000C941F010C941F010C941F010C941F01B0
:100050000C941F010C941F010C941F010C941F01A0
:100060000C941F010C941F010C941F010C941F0190
:100070000C941F010C941F010C941F010C941F0180
:100080000C941F010C941F010C941F010C941F0170
:100090000C941F010C941F010C941F010C941F0160
:1000A0000C941F010C941F010C941F010C941F0150
:1000B0000C941F0101000102800011241FBECFEF2C
:1000C000D8E0DEBFCDBFE4EBF0E040E017C0B59173
:1000D000A59135912591059107FD0CC095918591CC
:1000E000EF01F92FE82F05900D92A217B307D9F76A
:1000F000FE0104C01D92A217B307E1F7E93BF40724
:0E01000031F70E9487000C941401F894FFCF91
:10010E008CE08093690082E08DBB8FEF84B91AB8C2
:10011E0088E08BB97894809101018823F9F0809161
:10012E00000181111BC088E085B980E090E00BC012
:10013E00EFE9FFE03197F1F700C0000020910001D8
:10014E00211105C00196803AFFE09F078CF3809144
:10015E0000018111E0CF10920101DDCF80910001ED
:10016E008823A9F1109200018EE385B980E090E01A
:10017E000BC0EFE9FFE03197F1F700C000002091CE
:10018E000001211105C00196883EF3E09F078CF314
:10019E00809100018111BFCF88E085B980E090E0A9
:1001AE000BC0EFE9FFE03197F1F700C0000020919E
:1001BE000001211105C00196883BFBE09F078CF3DF
:1001CE00809100018111A7CF10920101A4CF15B823
:0201DE00A2CFAE
:1001E0001F920F920FB60F9211248F939F9308C006
:1001F00082E08CBB8FE19EE40197F1F700C0000024
:10020000E199F6CF80910101811104C081E08093D2
:10021000010103C081E0809300019F918F910F90B5
:080220000FBE0F901F9018950E
:10022800EC010E9424010E942301CE010E942501B5
:06023800CE010E9421012D
:04023E000C9400001C
:040242000E94850091
:02024600089519
:02024800089517
:02024A00089515
:00000001FF
